{
  "_format": "hh-sol-artifact-1",
  "contractName": "NFTContract",
  "sourceName": "contracts/NFTContract.sol",
  "abi": [
    {
      "inputs": [],
      "stateMutability": "nonpayable",
      "type": "constructor"
    },
    {
      "anonymous": false,
      "inputs": [
        {
          "indexed": true,
          "internalType": "address",
          "name": "owner",
          "type": "address"
        },
        {
          "indexed": true,
          "internalType": "address",
          "name": "approved",
          "type": "address"
        },
        {
          "indexed": true,
          "internalType": "uint256",
          "name": "tokenId",
          "type": "uint256"
        }
      ],
      "name": "Approval",
      "type": "event"
    },
    {
      "anonymous": false,
      "inputs": [
        {
          "indexed": true,
          "internalType": "address",
          "name": "owner",
          "type": "address"
        },
        {
          "indexed": true,
          "internalType": "address",
          "name": "operator",
          "type": "address"
        },
        {
          "indexed": false,
          "internalType": "bool",
          "name": "approved",
          "type": "bool"
        }
      ],
      "name": "ApprovalForAll",
      "type": "event"
    },
    {
      "anonymous": false,
      "inputs": [
        {
          "indexed": false,
          "internalType": "uint256",
          "name": "_fromTokenId",
          "type": "uint256"
        },
        {
          "indexed": false,
          "internalType": "uint256",
          "name": "_toTokenId",
          "type": "uint256"
        }
      ],
      "name": "BatchMetadataUpdate",
      "type": "event"
    },
    {
      "anonymous": false,
      "inputs": [
        {
          "indexed": false,
          "internalType": "uint256",
          "name": "_tokenId",
          "type": "uint256"
        }
      ],
      "name": "MetadataUpdate",
      "type": "event"
    },
    {
      "anonymous": false,
      "inputs": [
        {
          "indexed": true,
          "internalType": "address",
          "name": "from",
          "type": "address"
        },
        {
          "indexed": true,
          "internalType": "address",
          "name": "to",
          "type": "address"
        },
        {
          "indexed": true,
          "internalType": "uint256",
          "name": "tokenId",
          "type": "uint256"
        }
      ],
      "name": "Transfer",
      "type": "event"
    },
    {
      "inputs": [
        {
          "internalType": "address",
          "name": "to",
          "type": "address"
        },
        {
          "internalType": "uint256",
          "name": "tokenId",
          "type": "uint256"
        }
      ],
      "name": "approve",
      "outputs": [],
      "stateMutability": "nonpayable",
      "type": "function"
    },
    {
      "inputs": [
        {
          "internalType": "address",
          "name": "owner",
          "type": "address"
        }
      ],
      "name": "balanceOf",
      "outputs": [
        {
          "internalType": "uint256",
          "name": "",
          "type": "uint256"
        }
      ],
      "stateMutability": "view",
      "type": "function"
    },
    {
      "inputs": [
        {
          "internalType": "string",
          "name": "tokenURI",
          "type": "string"
        }
      ],
      "name": "createNFT",
      "outputs": [
        {
          "internalType": "uint256",
          "name": "",
          "type": "uint256"
        }
      ],
      "stateMutability": "nonpayable",
      "type": "function"
    },
    {
      "inputs": [
        {
          "internalType": "uint256",
          "name": "tokenId",
          "type": "uint256"
        }
      ],
      "name": "getApproved",
      "outputs": [
        {
          "internalType": "address",
          "name": "",
          "type": "address"
        }
      ],
      "stateMutability": "view",
      "type": "function"
    },
    {
      "inputs": [
        {
          "internalType": "address",
          "name": "owner",
          "type": "address"
        },
        {
          "internalType": "address",
          "name": "operator",
          "type": "address"
        }
      ],
      "name": "isApprovedForAll",
      "outputs": [
        {
          "internalType": "bool",
          "name": "",
          "type": "bool"
        }
      ],
      "stateMutability": "view",
      "type": "function"
    },
    {
      "inputs": [],
      "name": "name",
      "outputs": [
        {
          "internalType": "string",
          "name": "",
          "type": "string"
        }
      ],
      "stateMutability": "view",
      "type": "function"
    },
    {
      "inputs": [
        {
          "internalType": "uint256",
          "name": "tokenId",
          "type": "uint256"
        }
      ],
      "name": "ownerOf",
      "outputs": [
        {
          "internalType": "address",
          "name": "",
          "type": "address"
        }
      ],
      "stateMutability": "view",
      "type": "function"
    },
    {
      "inputs": [
        {
          "internalType": "address",
          "name": "from",
          "type": "address"
        },
        {
          "internalType": "address",
          "name": "to",
          "type": "address"
        },
        {
          "internalType": "uint256",
          "name": "tokenId",
          "type": "uint256"
        }
      ],
      "name": "safeTransferFrom",
      "outputs": [],
      "stateMutability": "nonpayable",
      "type": "function"
    },
    {
      "inputs": [
        {
          "internalType": "address",
          "name": "from",
          "type": "address"
        },
        {
          "internalType": "address",
          "name": "to",
          "type": "address"
        },
        {
          "internalType": "uint256",
          "name": "tokenId",
          "type": "uint256"
        },
        {
          "internalType": "bytes",
          "name": "data",
          "type": "bytes"
        }
      ],
      "name": "safeTransferFrom",
      "outputs": [],
      "stateMutability": "nonpayable",
      "type": "function"
    },
    {
      "inputs": [
        {
          "internalType": "address",
          "name": "operator",
          "type": "address"
        },
        {
          "internalType": "bool",
          "name": "approved",
          "type": "bool"
        }
      ],
      "name": "setApprovalForAll",
      "outputs": [],
      "stateMutability": "nonpayable",
      "type": "function"
    },
    {
      "inputs": [
        {
          "internalType": "bytes4",
          "name": "interfaceId",
          "type": "bytes4"
        }
      ],
      "name": "supportsInterface",
      "outputs": [
        {
          "internalType": "bool",
          "name": "",
          "type": "bool"
        }
      ],
      "stateMutability": "view",
      "type": "function"
    },
    {
      "inputs": [],
      "name": "symbol",
      "outputs": [
        {
          "internalType": "string",
          "name": "",
          "type": "string"
        }
      ],
      "stateMutability": "view",
      "type": "function"
    },
    {
      "inputs": [
        {
          "internalType": "uint256",
          "name": "tokenId",
          "type": "uint256"
        }
      ],
      "name": "tokenURI",
      "outputs": [
        {
          "internalType": "string",
          "name": "",
          "type": "string"
        }
      ],
      "stateMutability": "view",
      "type": "function"
    },
    {
      "inputs": [
        {
          "internalType": "address",
          "name": "from",
          "type": "address"
        },
        {
          "internalType": "address",
          "name": "to",
          "type": "address"
        },
        {
          "internalType": "uint256",
          "name": "tokenId",
          "type": "uint256"
        }
      ],
      "name": "transferFrom",
      "outputs": [],
      "stateMutability": "nonpayable",
      "type": "function"
    }
  ],
  "bytecode": "0x60806040523480156200001157600080fd5b506040805180820182526005815264135e53919560da1b6020808301918252835180850190945260048452631353919560e21b9084015281519192916200005b916000916200007a565b508051620000719060019060208401906200007a565b5050506200015d565b828054620000889062000120565b90600052602060002090601f016020900481019282620000ac5760008555620000f7565b82601f10620000c757805160ff1916838001178555620000f7565b82800160010185558215620000f7579182015b82811115620000f7578251825591602001919060010190620000da565b506200010592915062000109565b5090565b5b808211156200010557600081556001016200010a565b600181811c908216806200013557607f821691505b602082108114156200015757634e487b7160e01b600052602260045260246000fd5b50919050565b6116aa806200016d6000396000f3fe608060405234801561001057600080fd5b50600436106100ea5760003560e01c806370a082311161008c578063b88d4fde11610066578063b88d4fde146101e1578063c87b56dd146101f4578063da2ed03e14610207578063e985e9c51461021a57600080fd5b806370a08231146101a557806395d89b41146101c6578063a22cb465146101ce57600080fd5b8063095ea7b3116100c8578063095ea7b31461015757806323b872dd1461016c57806342842e0e1461017f5780636352211e1461019257600080fd5b806301ffc9a7146100ef57806306fdde0314610117578063081812fc1461012c575b600080fd5b6101026100fd366004611185565b610256565b60405190151581526020015b60405180910390f35b61011f610281565b60405161010e91906111fa565b61013f61013a36600461120d565b610313565b6040516001600160a01b03909116815260200161010e565b61016a610165366004611242565b61033a565b005b61016a61017a36600461126c565b610455565b61016a61018d36600461126c565b610486565b61013f6101a036600461120d565b6104a1565b6101b86101b33660046112a8565b610501565b60405190815260200161010e565b61011f610587565b61016a6101dc3660046112c3565b610596565b61016a6101ef36600461138b565b6105a5565b61011f61020236600461120d565b6105dd565b6101b8610215366004611407565b6106ee565b610102610228366004611450565b6001600160a01b03918216600090815260056020908152604080832093909416825291909152205460ff1690565b60006001600160e01b03198216632483248360e11b148061027b575061027b82610732565b92915050565b60606000805461029090611483565b80601f01602080910402602001604051908101604052809291908181526020018280546102bc90611483565b80156103095780601f106102de57610100808354040283529160200191610309565b820191906000526020600020905b8154815290600101906020018083116102ec57829003601f168201915b5050505050905090565b600061031e82610782565b506000908152600460205260409020546001600160a01b031690565b6000610345826104a1565b9050806001600160a01b0316836001600160a01b031614156103b85760405162461bcd60e51b815260206004820152602160248201527f4552433732313a20617070726f76616c20746f2063757272656e74206f776e656044820152603960f91b60648201526084015b60405180910390fd5b336001600160a01b03821614806103d457506103d48133610228565b6104465760405162461bcd60e51b815260206004820152603d60248201527f4552433732313a20617070726f76652063616c6c6572206973206e6f7420746f60448201527f6b656e206f776e6572206f7220617070726f76656420666f7220616c6c00000060648201526084016103af565b61045083836107e4565b505050565b61045f3382610852565b61047b5760405162461bcd60e51b81526004016103af906114be565b6104508383836108d0565b610450838383604051806020016040528060008152506105a5565b6000818152600260205260408120546001600160a01b03168061027b5760405162461bcd60e51b8152602060048201526018602482015277115490cdcc8c4e881a5b9d985b1a59081d1bdad95b88125160421b60448201526064016103af565b60006001600160a01b03821661056b5760405162461bcd60e51b815260206004820152602960248201527f4552433732313a2061646472657373207a65726f206973206e6f7420612076616044820152683634b21037bbb732b960b91b60648201526084016103af565b506001600160a01b031660009081526003602052604090205490565b60606001805461029090611483565b6105a1338383610a34565b5050565b6105af3383610852565b6105cb5760405162461bcd60e51b81526004016103af906114be565b6105d784848484610b03565b50505050565b60606105e882610782565b6000828152600660205260408120805461060190611483565b80601f016020809104026020016040519081016040528092919081815260200182805461062d90611483565b801561067a5780601f1061064f5761010080835404028352916020019161067a565b820191906000526020600020905b81548152906001019060200180831161065d57829003601f168201915b50505050509050600061069860408051602081019091526000815290565b90508051600014156106ab575092915050565b8151156106dd5780826040516020016106c592919061150b565b60405160208183030381529060405292505050919050565b6106e684610b36565b949350505050565b60008060075460016107009190611550565b905061070c3382610baa565b6107168184610bc4565b6007805490600061072683611568565b90915550909392505050565b60006001600160e01b031982166380ac58cd60e01b148061076357506001600160e01b03198216635b5e139f60e01b145b8061027b57506301ffc9a760e01b6001600160e01b031983161461027b565b6000818152600260205260409020546001600160a01b03166107e15760405162461bcd60e51b8152602060048201526018602482015277115490cdcc8c4e881a5b9d985b1a59081d1bdad95b88125160421b60448201526064016103af565b50565b600081815260046020526040902080546001600160a01b0319166001600160a01b0384169081179091558190610819826104a1565b6001600160a01b03167f8c5be1e5ebec7d5bd14f71427d1e84f3dd0314c0f7b2291e5b200ac8c7c3b92560405160405180910390a45050565b60008061085e836104a1565b9050806001600160a01b0316846001600160a01b031614806108a557506001600160a01b0380821660009081526005602090815260408083209388168352929052205460ff165b806106e65750836001600160a01b03166108be84610313565b6001600160a01b031614949350505050565b826001600160a01b03166108e3826104a1565b6001600160a01b0316146109095760405162461bcd60e51b81526004016103af90611583565b6001600160a01b03821661096b5760405162461bcd60e51b8152602060048201526024808201527f4552433732313a207472616e7366657220746f20746865207a65726f206164646044820152637265737360e01b60648201526084016103af565b826001600160a01b031661097e826104a1565b6001600160a01b0316146109a45760405162461bcd60e51b81526004016103af90611583565b600081815260046020908152604080832080546001600160a01b03199081169091556001600160a01b0387811680865260038552838620805460001901905590871680865283862080546001019055868652600290945282852080549092168417909155905184937fddf252ad1be2c89b69c2b068fc378daa952ba7f163c4a11628f55a4df523b3ef91a4505050565b816001600160a01b0316836001600160a01b03161415610a965760405162461bcd60e51b815260206004820152601960248201527f4552433732313a20617070726f766520746f2063616c6c65720000000000000060448201526064016103af565b6001600160a01b03838116600081815260056020908152604080832094871680845294825291829020805460ff191686151590811790915591519182527f17307eab39ab6107e8899845ad3d59bd9653f200f220920489ca2b5937696c31910160405180910390a3505050565b610b0e8484846108d0565b610b1a84848484610c96565b6105d75760405162461bcd60e51b81526004016103af906115c8565b6060610b4182610782565b6000610b5860408051602081019091526000815290565b90506000815111610b785760405180602001604052806000815250610ba3565b80610b8284610da3565b604051602001610b9392919061150b565b6040516020818303038152906040525b9392505050565b6105a1828260405180602001604052806000815250610e40565b6000828152600260205260409020546001600160a01b0316610c3f5760405162461bcd60e51b815260206004820152602e60248201527f45524337323155524953746f726167653a2055524920736574206f66206e6f6e60448201526d32bc34b9ba32b73a103a37b5b2b760911b60648201526084016103af565b60008281526006602090815260409091208251610c5e928401906110d6565b506040518281527ff8e1a15aba9398e019f0b49df1a4fde98ee17ae345cb5f6b5e2c27f5033e8ce79060200160405180910390a15050565b60006001600160a01b0384163b15610d9857604051630a85bd0160e11b81526001600160a01b0385169063150b7a0290610cda90339089908890889060040161161a565b602060405180830381600087803b158015610cf457600080fd5b505af1925050508015610d24575060408051601f3d908101601f19168201909252610d2191810190611657565b60015b610d7e573d808015610d52576040519150601f19603f3d011682016040523d82523d6000602084013e610d57565b606091505b508051610d765760405162461bcd60e51b81526004016103af906115c8565b805181602001fd5b6001600160e01b031916630a85bd0160e11b1490506106e6565b506001949350505050565b60606000610db083610e73565b600101905060008167ffffffffffffffff811115610dd057610dd06112ff565b6040519080825280601f01601f191660200182016040528015610dfa576020820181803683370190505b5090508181016020015b600019016f181899199a1a9b1b9c1cb0b131b232b360811b600a86061a8153600a8504945084610e3357610e38565b610e04565b509392505050565b610e4a8383610f4b565b610e576000848484610c96565b6104505760405162461bcd60e51b81526004016103af906115c8565b60008072184f03e93ff9f4daa797ed6e38ed64bf6a1f0160401b8310610eb25772184f03e93ff9f4daa797ed6e38ed64bf6a1f0160401b830492506040015b6d04ee2d6d415b85acef81000000008310610ede576d04ee2d6d415b85acef8100000000830492506020015b662386f26fc100008310610efc57662386f26fc10000830492506010015b6305f5e1008310610f14576305f5e100830492506008015b6127108310610f2857612710830492506004015b60648310610f3a576064830492506002015b600a831061027b5760010192915050565b6001600160a01b038216610fa15760405162461bcd60e51b815260206004820181905260248201527f4552433732313a206d696e7420746f20746865207a65726f206164647265737360448201526064016103af565b6000818152600260205260409020546001600160a01b0316156110065760405162461bcd60e51b815260206004820152601c60248201527f4552433732313a20746f6b656e20616c7265616479206d696e7465640000000060448201526064016103af565b6000818152600260205260409020546001600160a01b03161561106b5760405162461bcd60e51b815260206004820152601c60248201527f4552433732313a20746f6b656e20616c7265616479206d696e7465640000000060448201526064016103af565b6001600160a01b038216600081815260036020908152604080832080546001019055848352600290915280822080546001600160a01b0319168417905551839291907fddf252ad1be2c89b69c2b068fc378daa952ba7f163c4a11628f55a4df523b3ef908290a45050565b8280546110e290611483565b90600052602060002090601f016020900481019282611104576000855561114a565b82601f1061111d57805160ff191683800117855561114a565b8280016001018555821561114a579182015b8281111561114a57825182559160200191906001019061112f565b5061115692915061115a565b5090565b5b80821115611156576000815560010161115b565b6001600160e01b0319811681146107e157600080fd5b60006020828403121561119757600080fd5b8135610ba38161116f565b60005b838110156111bd5781810151838201526020016111a5565b838111156105d75750506000910152565b600081518084526111e68160208601602086016111a2565b601f01601f19169290920160200192915050565b602081526000610ba360208301846111ce565b60006020828403121561121f57600080fd5b5035919050565b80356001600160a01b038116811461123d57600080fd5b919050565b6000806040838503121561125557600080fd5b61125e83611226565b946020939093013593505050565b60008060006060848603121561128157600080fd5b61128a84611226565b925061129860208501611226565b9150604084013590509250925092565b6000602082840312156112ba57600080fd5b610ba382611226565b600080604083850312156112d657600080fd5b6112df83611226565b9150602083013580151581146112f457600080fd5b809150509250929050565b634e487b7160e01b600052604160045260246000fd5b600067ffffffffffffffff80841115611330576113306112ff565b604051601f8501601f19908116603f01168101908282118183101715611358576113586112ff565b8160405280935085815286868601111561137157600080fd5b858560208301376000602087830101525050509392505050565b600080600080608085870312156113a157600080fd5b6113aa85611226565b93506113b860208601611226565b925060408501359150606085013567ffffffffffffffff8111156113db57600080fd5b8501601f810187136113ec57600080fd5b6113fb87823560208401611315565b91505092959194509250565b60006020828403121561141957600080fd5b813567ffffffffffffffff81111561143057600080fd5b8201601f8101841361144157600080fd5b6106e684823560208401611315565b6000806040838503121561146357600080fd5b61146c83611226565b915061147a60208401611226565b90509250929050565b600181811c9082168061149757607f821691505b602082108114156114b857634e487b7160e01b600052602260045260246000fd5b50919050565b6020808252602d908201527f4552433732313a2063616c6c6572206973206e6f7420746f6b656e206f776e6560408201526c1c881bdc88185c1c1c9bdd9959609a1b606082015260800190565b6000835161151d8184602088016111a2565b8351908301906115318183602088016111a2565b01949350505050565b634e487b7160e01b600052601160045260246000fd5b600082198211156115635761156361153a565b500190565b600060001982141561157c5761157c61153a565b5060010190565b60208082526025908201527f4552433732313a207472616e736665722066726f6d20696e636f72726563742060408201526437bbb732b960d91b606082015260800190565b60208082526032908201527f4552433732313a207472616e7366657220746f206e6f6e20455243373231526560408201527131b2b4bb32b91034b6b83632b6b2b73a32b960711b606082015260800190565b6001600160a01b038581168252841660208201526040810183905260806060820181905260009061164d908301846111ce565b9695505050505050565b60006020828403121561166957600080fd5b8151610ba38161116f56fea26469706673582212205e48382f3380d52441f82ef52aaddb5c65f534ea809291fe09d5f8741ab9801d64736f6c63430008090033",
  "linkReferences": {},
  "deployedLinkReferences": {}
}